{"address":"0xFCa80643D413E60F75b773c0332b54a72EcbDDa9","bytecode":"0x60806040523480156200001157600080fd5b5060405162000eed38038062000eed833981810160405281019062000037919062000278565b6200006760405180606001604052806022815260200162000ecb60229139826200008760201b620002961760201c565b80600090805190602001906200007f92919062000156565b5050620004c5565b620001298282604051602401620000a0929190620002fe565b6040516020818303038152906040527f4b5c4277000000000000000000000000000000000000000000000000000000007bffffffffffffffffffffffffffffffffffffffffffffffffffffffff19166020820180517bffffffffffffffffffffffffffffffffffffffffffffffffffffffff83818316178352505050506200012d60201b60201c565b5050565b60008151905060006a636f6e736f6c652e6c6f679050602083016000808483855afa5050505050565b8280546200016490620003ea565b90600052602060002090601f016020900481019282620001885760008555620001d4565b82601f10620001a357805160ff1916838001178555620001d4565b82800160010185558215620001d4579182015b82811115620001d3578251825591602001919060010190620001b6565b5b509050620001e39190620001e7565b5090565b5b8082111562000202576000816000905550600101620001e8565b5090565b60006200021d620002178462000362565b62000339565b9050828152602081018484840111156200023657600080fd5b62000243848285620003b4565b509392505050565b600082601f8301126200025d57600080fd5b81516200026f84826020860162000206565b91505092915050565b6000602082840312156200028b57600080fd5b600082015167ffffffffffffffff811115620002a657600080fd5b620002b4848285016200024b565b91505092915050565b6000620002ca8262000398565b620002d68185620003a3565b9350620002e8818560208601620003b4565b620002f381620004b4565b840191505092915050565b600060408201905081810360008301526200031a8185620002bd565b90508181036020830152620003308184620002bd565b90509392505050565b60006200034562000358565b905062000353828262000420565b919050565b6000604051905090565b600067ffffffffffffffff82111562000380576200037f62000485565b5b6200038b82620004b4565b9050602081019050919050565b600081519050919050565b600082825260208201905092915050565b60005b83811015620003d4578082015181840152602081019050620003b7565b83811115620003e4576000848401525b50505050565b600060028204905060018216806200040357607f821691505b602082108114156200041a576200041962000456565b5b50919050565b6200042b82620004b4565b810181811067ffffffffffffffff821117156200044d576200044c62000485565b5b80604052505050565b7f4e487b7100000000000000000000000000000000000000000000000000000000600052602260045260246000fd5b7f4e487b7100000000000000000000000000000000000000000000000000000000600052604160045260246000fd5b6000601f19601f8301169050919050565b6109f680620004d56000396000f3fe608060405234801561001057600080fd5b506004361061004c5760003560e01c80633fb5c1cb146100515780638381f58a1461006d578063a41368621461008b578063cfae3217146100a7575b600080fd5b61006b600480360381019061006691906105fa565b6100c5565b005b610075610137565b6040516100829190610791565b60405180910390f35b6100a560048036038101906100a091906105b9565b61013d565b005b6100af610204565b6040516100bc919061068e565b60405180910390f35b60648110610108576040517f08c379a00000000000000000000000000000000000000000000000000000000081526004016100ff90610771565b60405180910390fd5b61012d6040518060600160405280602181526020016109a06021913960015483610332565b8060018190555050565b60015481565b6101ea60405180606001604052806023815260200161097d60239139600080546101669061086a565b80601f01602080910402602001604051908101604052809291908181526020018280546101929061086a565b80156101df5780601f106101b4576101008083540402835291602001916101df565b820191906000526020600020905b8154815290600101906020018083116101c257829003601f168201915b5050505050836103d1565b8060009080519060200190610200929190610499565b5050565b6060600080546102139061086a565b80601f016020809104026020016040519081016040528092919081815260200182805461023f9061086a565b801561028c5780601f106102615761010080835404028352916020019161028c565b820191906000526020600020905b81548152906001019060200180831161026f57829003601f168201915b5050505050905090565b61032e82826040516024016102ac9291906106b0565b6040516020818303038152906040527f4b5c4277000000000000000000000000000000000000000000000000000000007bffffffffffffffffffffffffffffffffffffffffffffffffffffffff19166020820180517bffffffffffffffffffffffffffffffffffffffffffffffffffffffff8381831617835250505050610470565b5050565b6103cc83838360405160240161034a93929190610733565b6040516020818303038152906040527f969cdd03000000000000000000000000000000000000000000000000000000007bffffffffffffffffffffffffffffffffffffffffffffffffffffffff19166020820180517bffffffffffffffffffffffffffffffffffffffffffffffffffffffff8381831617835250505050610470565b505050565b61046b8383836040516024016103e9939291906106e7565b6040516020818303038152906040527f2ced7cef000000000000000000000000000000000000000000000000000000007bffffffffffffffffffffffffffffffffffffffffffffffffffffffff19166020820180517bffffffffffffffffffffffffffffffffffffffffffffffffffffffff8381831617835250505050610470565b505050565b60008151905060006a636f6e736f6c652e6c6f679050602083016000808483855afa5050505050565b8280546104a59061086a565b90600052602060002090601f0160209004810192826104c7576000855561050e565b82601f106104e057805160ff191683800117855561050e565b8280016001018555821561050e579182015b8281111561050d5782518255916020019190600101906104f2565b5b50905061051b919061051f565b5090565b5b80821115610538576000816000905550600101610520565b5090565b600061054f61054a846107d1565b6107ac565b90508281526020810184848401111561056757600080fd5b610572848285610828565b509392505050565b600082601f83011261058b57600080fd5b813561059b84826020860161053c565b91505092915050565b6000813590506105b381610965565b92915050565b6000602082840312156105cb57600080fd5b600082013567ffffffffffffffff8111156105e557600080fd5b6105f18482850161057a565b91505092915050565b60006020828403121561060c57600080fd5b600061061a848285016105a4565b91505092915050565b600061062e82610802565b610638818561080d565b9350610648818560208601610837565b6106518161092b565b840191505092915050565b6000610669601e8361080d565b91506106748261093c565b602082019050919050565b6106888161081e565b82525050565b600060208201905081810360008301526106a88184610623565b905092915050565b600060408201905081810360008301526106ca8185610623565b905081810360208301526106de8184610623565b90509392505050565b600060608201905081810360008301526107018186610623565b905081810360208301526107158185610623565b905081810360408301526107298184610623565b9050949350505050565b6000606082019050818103600083015261074d8186610623565b905061075c602083018561067f565b610769604083018461067f565b949350505050565b6000602082019050818103600083015261078a8161065c565b9050919050565b60006020820190506107a6600083018461067f565b92915050565b60006107b66107c7565b90506107c2828261089c565b919050565b6000604051905090565b600067ffffffffffffffff8211156107ec576107eb6108fc565b5b6107f58261092b565b9050602081019050919050565b600081519050919050565b600082825260208201905092915050565b6000819050919050565b82818337600083830152505050565b60005b8381101561085557808201518184015260208101905061083a565b83811115610864576000848401525b50505050565b6000600282049050600182168061088257607f821691505b60208210811415610896576108956108cd565b5b50919050565b6108a58261092b565b810181811067ffffffffffffffff821117156108c4576108c36108fc565b5b80604052505050565b7f4e487b7100000000000000000000000000000000000000000000000000000000600052602260045260246000fd5b7f4e487b7100000000000000000000000000000000000000000000000000000000600052604160045260246000fd5b6000601f19601f8301169050919050565b7f4e756d6265722063616e2774206265206d6f7265207468616e203130302e0000600082015250565b61096e8161081e565b811461097957600080fd5b5056fe4368616e67696e67206772656574696e672066726f6d202725732720746f20272573274368616e67696e67206e756d6265722066726f6d202725642720746f2027256427a26469706673582212204c8ee11a1d499156cec387240bc12a2628daee5b81488a1249cdada67886117364736f6c634300080400334465706c6f79696e67206120477265657465722077697468206772656574696e673a","abi":[{"inputs":[{"internalType":"string","name":"_greeting","type":"string"}],"stateMutability":"nonpayable","type":"constructor"},{"inputs":[],"name":"greet","outputs":[{"internalType":"string","name":"","type":"string"}],"stateMutability":"view","type":"function"},{"inputs":[],"name":"number","outputs":[{"internalType":"uint256","name":"","type":"uint256"}],"stateMutability":"view","type":"function"},{"inputs":[{"internalType":"string","name":"_greeting","type":"string"}],"name":"setGreeting","outputs":[],"stateMutability":"nonpayable","type":"function"},{"inputs":[{"internalType":"uint256","name":"_number","type":"uint256"}],"name":"setNumber","outputs":[],"stateMutability":"nonpayable","type":"function"}]}